{
  "_format": "hh-sol-artifact-1",
  "contractName": "TokenStaking",
  "sourceName": "contracts/TokenStaking.sol",
  "abi": [
    {
      "anonymous": false,
      "inputs": [
        {
          "indexed": true,
          "internalType": "address",
          "name": "user",
          "type": "address"
        },
        {
          "indexed": false,
          "internalType": "uint256",
          "name": "amount",
          "type": "uint256"
        }
      ],
      "name": "ClaimReward",
      "type": "event"
    },
    {
      "anonymous": false,
      "inputs": [
        {
          "indexed": true,
          "internalType": "address",
          "name": "user",
          "type": "address"
        },
        {
          "indexed": false,
          "internalType": "uint256",
          "name": "amount",
          "type": "uint256"
        }
      ],
      "name": "EarlyUnStakeFee",
      "type": "event"
    },
    {
      "anonymous": false,
      "inputs": [
        {
          "indexed": false,
          "internalType": "uint8",
          "name": "version",
          "type": "uint8"
        }
      ],
      "name": "Initialized",
      "type": "event"
    },
    {
      "anonymous": false,
      "inputs": [
        {
          "indexed": true,
          "internalType": "address",
          "name": "previousOwner",
          "type": "address"
        },
        {
          "indexed": true,
          "internalType": "address",
          "name": "newOwner",
          "type": "address"
        }
      ],
      "name": "OwnershipTransferred",
      "type": "event"
    },
    {
      "anonymous": false,
      "inputs": [
        {
          "indexed": true,
          "internalType": "address",
          "name": "user",
          "type": "address"
        },
        {
          "indexed": false,
          "internalType": "uint256",
          "name": "amount",
          "type": "uint256"
        }
      ],
      "name": "Stake",
      "type": "event"
    },
    {
      "anonymous": false,
      "inputs": [
        {
          "indexed": true,
          "internalType": "address",
          "name": "user",
          "type": "address"
        },
        {
          "indexed": false,
          "internalType": "uint256",
          "name": "amount",
          "type": "uint256"
        }
      ],
      "name": "UnStake",
      "type": "event"
    },
    {
      "inputs": [],
      "name": "APY_RATE_CHANGE_THRESHOLD",
      "outputs": [
        {
          "internalType": "uint256",
          "name": "",
          "type": "uint256"
        }
      ],
      "stateMutability": "view",
      "type": "function"
    },
    {
      "inputs": [],
      "name": "PERCENTAGE_DENOMINATOR",
      "outputs": [
        {
          "internalType": "uint256",
          "name": "",
          "type": "uint256"
        }
      ],
      "stateMutability": "view",
      "type": "function"
    },
    {
      "inputs": [],
      "name": "claimReward",
      "outputs": [],
      "stateMutability": "nonpayable",
      "type": "function"
    },
    {
      "inputs": [],
      "name": "getAPY",
      "outputs": [
        {
          "internalType": "uint256",
          "name": "",
          "type": "uint256"
        }
      ],
      "stateMutability": "view",
      "type": "function"
    },
    {
      "inputs": [],
      "name": "getEarlyUnstakeFeePercentage",
      "outputs": [
        {
          "internalType": "uint256",
          "name": "",
          "type": "uint256"
        }
      ],
      "stateMutability": "view",
      "type": "function"
    },
    {
      "inputs": [],
      "name": "getMaxStakingTokenLimit",
      "outputs": [
        {
          "internalType": "uint256",
          "name": "",
          "type": "uint256"
        }
      ],
      "stateMutability": "view",
      "type": "function"
    },
    {
      "inputs": [],
      "name": "getMinimumStakingAmount",
      "outputs": [
        {
          "internalType": "uint256",
          "name": "",
          "type": "uint256"
        }
      ],
      "stateMutability": "view",
      "type": "function"
    },
    {
      "inputs": [],
      "name": "getStakeDays",
      "outputs": [
        {
          "internalType": "uint256",
          "name": "",
          "type": "uint256"
        }
      ],
      "stateMutability": "view",
      "type": "function"
    },
    {
      "inputs": [],
      "name": "getStakeEndDate",
      "outputs": [
        {
          "internalType": "uint256",
          "name": "",
          "type": "uint256"
        }
      ],
      "stateMutability": "view",
      "type": "function"
    },
    {
      "inputs": [],
      "name": "getStakeStartDate",
      "outputs": [
        {
          "internalType": "uint256",
          "name": "",
          "type": "uint256"
        }
      ],
      "stateMutability": "view",
      "type": "function"
    },
    {
      "inputs": [],
      "name": "getStakingStatus",
      "outputs": [
        {
          "internalType": "bool",
          "name": "",
          "type": "bool"
        }
      ],
      "stateMutability": "view",
      "type": "function"
    },
    {
      "inputs": [],
      "name": "getTotalStakedTokens",
      "outputs": [
        {
          "internalType": "uint256",
          "name": "",
          "type": "uint256"
        }
      ],
      "stateMutability": "view",
      "type": "function"
    },
    {
      "inputs": [],
      "name": "getTotalUsers",
      "outputs": [
        {
          "internalType": "uint256",
          "name": "",
          "type": "uint256"
        }
      ],
      "stateMutability": "view",
      "type": "function"
    },
    {
      "inputs": [
        {
          "internalType": "address",
          "name": "userAddress",
          "type": "address"
        }
      ],
      "name": "getUser",
      "outputs": [
        {
          "components": [
            {
              "internalType": "uint256",
              "name": "stakeAmount",
              "type": "uint256"
            },
            {
              "internalType": "uint256",
              "name": "rewardAmount",
              "type": "uint256"
            },
            {
              "internalType": "uint256",
              "name": "lastStakeTime",
              "type": "uint256"
            },
            {
              "internalType": "uint256",
              "name": "lastRewardCalculationTime",
              "type": "uint256"
            },
            {
              "internalType": "uint256",
              "name": "rewardsClaimedSoFar",
              "type": "uint256"
            }
          ],
          "internalType": "struct TokenStaking.User",
          "name": "",
          "type": "tuple"
        }
      ],
      "stateMutability": "view",
      "type": "function"
    },
    {
      "inputs": [],
      "name": "getUserEstimatedRewards",
      "outputs": [
        {
          "internalType": "uint256",
          "name": "",
          "type": "uint256"
        }
      ],
      "stateMutability": "view",
      "type": "function"
    },
    {
      "inputs": [],
      "name": "getWithdrawableAmount",
      "outputs": [
        {
          "internalType": "uint256",
          "name": "",
          "type": "uint256"
        }
      ],
      "stateMutability": "view",
      "type": "function"
    },
    {
      "inputs": [
        {
          "internalType": "address",
          "name": "owner_",
          "type": "address"
        },
        {
          "internalType": "address",
          "name": "tokenAddress_",
          "type": "address"
        },
        {
          "internalType": "uint256",
          "name": "apyRate_",
          "type": "uint256"
        },
        {
          "internalType": "uint256",
          "name": "minimumStakingAmount_",
          "type": "uint256"
        },
        {
          "internalType": "uint256",
          "name": "maxStakeTokenLimit_",
          "type": "uint256"
        },
        {
          "internalType": "uint256",
          "name": "stakeStartDate_",
          "type": "uint256"
        },
        {
          "internalType": "uint256",
          "name": "stakeEndDate_",
          "type": "uint256"
        },
        {
          "internalType": "uint256",
          "name": "stakeDays_",
          "type": "uint256"
        },
        {
          "internalType": "uint256",
          "name": "earlyUnstakeFeePercentage_",
          "type": "uint256"
        }
      ],
      "name": "initialize",
      "outputs": [],
      "stateMutability": "nonpayable",
      "type": "function"
    },
    {
      "inputs": [
        {
          "internalType": "address",
          "name": "_user",
          "type": "address"
        }
      ],
      "name": "isStakeHolder",
      "outputs": [
        {
          "internalType": "bool",
          "name": "",
          "type": "bool"
        }
      ],
      "stateMutability": "view",
      "type": "function"
    },
    {
      "inputs": [],
      "name": "owner",
      "outputs": [
        {
          "internalType": "address",
          "name": "",
          "type": "address"
        }
      ],
      "stateMutability": "view",
      "type": "function"
    },
    {
      "inputs": [],
      "name": "renounceOwnership",
      "outputs": [],
      "stateMutability": "nonpayable",
      "type": "function"
    },
    {
      "inputs": [
        {
          "internalType": "uint256",
          "name": "_amount",
          "type": "uint256"
        }
      ],
      "name": "stake",
      "outputs": [],
      "stateMutability": "nonpayable",
      "type": "function"
    },
    {
      "inputs": [
        {
          "internalType": "uint256",
          "name": "amount",
          "type": "uint256"
        },
        {
          "internalType": "address",
          "name": "user",
          "type": "address"
        }
      ],
      "name": "stakeForUser",
      "outputs": [],
      "stateMutability": "nonpayable",
      "type": "function"
    },
    {
      "inputs": [],
      "name": "toggleStakingStatus",
      "outputs": [],
      "stateMutability": "nonpayable",
      "type": "function"
    },
    {
      "inputs": [
        {
          "internalType": "address",
          "name": "newOwner",
          "type": "address"
        }
      ],
      "name": "transferOwnership",
      "outputs": [],
      "stateMutability": "nonpayable",
      "type": "function"
    },
    {
      "inputs": [
        {
          "internalType": "uint256",
          "name": "_amount",
          "type": "uint256"
        }
      ],
      "name": "unstake",
      "outputs": [],
      "stateMutability": "nonpayable",
      "type": "function"
    },
    {
      "inputs": [
        {
          "internalType": "uint256",
          "name": "newPercentage",
          "type": "uint256"
        }
      ],
      "name": "updateEarlyUnstakeFeePercentage",
      "outputs": [],
      "stateMutability": "nonpayable",
      "type": "function"
    },
    {
      "inputs": [
        {
          "internalType": "uint256",
          "name": "newAmount",
          "type": "uint256"
        }
      ],
      "name": "updateMaximumStakingAmount",
      "outputs": [],
      "stateMutability": "nonpayable",
      "type": "function"
    },
    {
      "inputs": [
        {
          "internalType": "uint256",
          "name": "newAmount",
          "type": "uint256"
        }
      ],
      "name": "updateMinimumStakingAmount",
      "outputs": [],
      "stateMutability": "nonpayable",
      "type": "function"
    },
    {
      "inputs": [
        {
          "internalType": "uint256",
          "name": "newDate",
          "type": "uint256"
        }
      ],
      "name": "updateStakingEndDate",
      "outputs": [],
      "stateMutability": "nonpayable",
      "type": "function"
    },
    {
      "inputs": [
        {
          "internalType": "uint256",
          "name": "amount",
          "type": "uint256"
        }
      ],
      "name": "withdraw",
      "outputs": [],
      "stateMutability": "nonpayable",
      "type": "function"
    }
  ],
  "bytecode": "0x608060405234801561001057600080fd5b5061001a33610023565b60018055610073565b600080546001600160a01b038381166001600160a01b0319831681178455604051919092169283917f8be0079c531659141344cd1fd0a4f28419497f9722a3daafe3b4186f6b6457e09190a35050565b611bab806100826000396000f3fe608060405234801561001057600080fd5b50600436106101d95760003560e01c8063845738cb11610104578063b88a802f116100a2578063d2cbf7ad11610071578063d2cbf7ad146103b9578063f0116b74146103c1578063f18cce76146103c9578063f2fde38b146103d157600080fd5b8063b88a802f14610396578063bb8febc61461039e578063c5d62b18146103a6578063cab9b8fb146103ae57600080fd5b806390be10cc116100de57806390be10cc1461036a5780639be572f614610372578063a694fc3a1461037a578063b3cd42541461038d57600080fd5b8063845738cb146103345780638585d138146103475780638da5cb5b1461034f57600080fd5b806351d185981161017c5780636f77926b1161014b5780636f77926b146102b157806370607f5d14610306578063715018a6146103195780637bb9769d1461032157600080fd5b806351d185981461025357806355f0fe421461025b5780635e39cd751461026e578063635121591461027657600080fd5b80632e1a7d4d116101b85780632e1a7d4d1461021d5780633e0935721461023057806342a23945146102435780634d55b1781461024b57600080fd5b80628e3252146101de5780630c4ca4a6146101f55780632e17de781461020a575b600080fd5b6006545b6040519081526020015b60405180910390f35b610208610203366004611939565b6103e4565b005b610208610218366004611939565b6103f1565b61020861022b366004611939565b6108ab565b61020861023e366004611939565b610a43565b6003546101e2565b6101e2610a50565b6007546101e2565b610208610269366004611939565b610a84565b600a546101e2565b6102a161028436600461196e565b6001600160a01b03166000908152600d6020526040902054151590565b60405190151581526020016101ec565b6102c46102bf36600461196e565b610a91565b6040516101ec9190600060a082019050825182526020830151602083015260408301516040830152606083015160608301526080830151608083015292915050565b610208610314366004611990565b610b1b565b610208610b55565b61020861032f366004611939565b610b69565b6102086103423660046119bc565b610b76565b6101e2600a81565b6000546040516001600160a01b0390911681526020016101ec565b6101e2610c99565b6008546101e2565b610208610388366004611939565b610d2d565b6101e261271081565b610208610d66565b6004546101e2565b610208610fed565b600b5460ff166102a1565b600c546101e2565b6005546101e2565b6009546101e2565b6102086103df36600461196e565b611009565b6103ec611082565b600455565b6002600154141561041d5760405162461bcd60e51b815260040161041490611a2d565b60405180910390fd5b6002600155600b546040516370a0823160e01b8152306004820152829182916101009091046001600160a01b0316906370a082319060240160206040518083038186803b15801561046d57600080fd5b505afa158015610481573d6000803e3d6000fd5b505050506040513d601f19601f820116820180604052508101906104a59190611a64565b10156104c35760405162461bcd60e51b815260040161041490611a7d565b33826105215760405162461bcd60e51b815260206004820152602760248201527f546f6b656e5374616b696e673a20616d6f756e742073686f756c64206265206e6044820152666f6e2d7a65726f60c81b6064820152608401610414565b604051636351215960e01b81526001600160a01b0382166004820152309063635121599060240160206040518083038186803b15801561056057600080fd5b505afa158015610574573d6000803e3d6000fd5b505050506040513d601f19601f820116820180604052508101906105989190611acd565b6105e45760405162461bcd60e51b815260206004820152601f60248201527f546f6b656e5374616b696e673a206e6f742061207374616b65686f6c646572006044820152606401610414565b6001600160a01b0381166000908152600d602052604090205483111561065e5760405162461bcd60e51b815260206004820152602960248201527f546f6b656e5374616b696e673a206e6f7420656e6f756768207374616b6520746044820152686f20756e7374616b6560b81b6064820152608401610414565b610667816110dc565b6009546001600160a01b0382166000908152600d6020526040812060020154909161069191611b05565b42116106f857612710600a54856106a89190611b1d565b6106b29190611b3c565b9050816001600160a01b03167f547c747d3878b7637a9d040b5479a58c43382aac8e5aa9a30a053c1a0cffb4f2826040516106ef91815260200190565b60405180910390a25b60006107048286611b5e565b6001600160a01b0384166000908152600d6020526040812080549293508792909190610731908490611b5e565b92505081905550846007600082825461074a9190611b5e565b90915550506001600160a01b0383166000908152600d60205260409020546107855760016008600082825461077f9190611b5e565b90915550505b600b5460405163a9059cbb60e01b81526001600160a01b038581166004830152602482018490526101009092049091169063a9059cbb90604401602060405180830381600087803b1580156107d957600080fd5b505af11580156107ed573d6000803e3d6000fd5b505050506040513d601f19601f820116820180604052508101906108119190611acd565b61085d5760405162461bcd60e51b815260206004820181905260248201527f546f6b656e5374616b696e673a206661696c656420746f207472616e736665726044820152606401610414565b826001600160a01b03167fb24546d975e2628748efc9aced80665e0fad66272033e5c0ea25fd3afac997958660405161089891815260200190565b60405180910390a2505060018055505050565b6108b3611082565b600260015414156108d65760405162461bcd60e51b815260040161041490611a2d565b600260018190555080306001600160a01b03166390be10cc6040518163ffffffff1660e01b815260040160206040518083038186803b15801561091857600080fd5b505afa15801561092c573d6000803e3d6000fd5b505050506040513d601f19601f820116820180604052508101906109509190611a64565b10156109b35760405162461bcd60e51b815260206004820152602c60248201527f546f6b656e5374616b696e673a206e6f7420656e6f756768207769746864726160448201526b7761626c6520746f6b656e7360a01b6064820152608401610414565b600b5460405163a9059cbb60e01b8152336004820152602481018390526101009091046001600160a01b03169063a9059cbb90604401602060405180830381600087803b158015610a0357600080fd5b505af1158015610a17573d6000803e3d6000fd5b505050506040513d601f19601f82011682018060405250810190610a3b9190611acd565b505060018055565b610a4b611082565b600555565b600080610a5c33611140565b50336000908152600d6020526040902060010154909150610a7e908290611b05565b91505090565b610a8c611082565b600355565b610ac36040518060a0016040528060008152602001600081526020016000815260200160008152602001600081525090565b506001600160a01b03166000908152600d6020908152604091829020825160a0810184528154815260018201549281019290925260028101549282019290925260038201546060820152600490910154608082015290565b610b23611082565b60026001541415610b465760405162461bcd60e51b815260040161041490611a2d565b6002600155610a3b828261121e565b610b5d611082565b610b676000611677565b565b610b71611082565b600a55565b600254610100900460ff1615808015610b965750600254600160ff909116105b80610bb05750303b158015610bb0575060025460ff166001145b610c135760405162461bcd60e51b815260206004820152602e60248201527f496e697469616c697a61626c653a20636f6e747261637420697320616c72656160448201526d191e481a5b9a5d1a585b1a5e995960921b6064820152608401610414565b6002805460ff191660011790558015610c36576002805461ff0019166101001790555b610c478a8a8a8a8a8a8a8a8a6116c7565b8015610c8d576002805461ff0019169055604051600181527f7f26b83ff96e1f2b6a682f133852f6798a09c465da95921460cefb38474024989060200160405180910390a15b50505050505050505050565b600754600b546040516370a0823160e01b81523060048201526000929161010090046001600160a01b0316906370a082319060240160206040518083038186803b158015610ce657600080fd5b505afa158015610cfa573d6000803e3d6000fd5b505050506040513d601f19601f82011682018060405250810190610d1e9190611a64565b610d289190611b5e565b905090565b60026001541415610d505760405162461bcd60e51b815260040161041490611a2d565b6002600155610d5f813361121e565b5060018055565b60026001541415610d895760405162461bcd60e51b815260040161041490611a2d565b60026001908155336000908152600d60205260409081902090910154600b5491516370a0823160e01b8152306004820152909182916101009091046001600160a01b0316906370a082319060240160206040518083038186803b158015610def57600080fd5b505afa158015610e03573d6000803e3d6000fd5b505050506040513d601f19601f82011682018060405250810190610e279190611a64565b1015610e455760405162461bcd60e51b815260040161041490611a7d565b610e4e336110dc565b336000908152600d602052604090206001015480610eae5760405162461bcd60e51b815260206004820181905260248201527f546f6b656e5374616b696e673a206e6f2072657761726420746f20636c61696d6044820152606401610414565b600b5460405163a9059cbb60e01b8152336004820152602481018390526101009091046001600160a01b03169063a9059cbb90604401602060405180830381600087803b158015610efe57600080fd5b505af1158015610f12573d6000803e3d6000fd5b505050506040513d601f19601f82011682018060405250810190610f369190611acd565b610f825760405162461bcd60e51b815260206004820181905260248201527f546f6b656e5374616b696e673a206661696c656420746f207472616e736665726044820152606401610414565b336000908152600d60205260408120600181018290556004018054839290610fab908490611b05565b909155505060405181815233907fba8de60c3403ec381d1d484652ea1980e3c3e56359195c92525bff4ce47ad98e9060200160405180910390a2505060018055565b610ff5611082565b600b805460ff19811660ff90911615179055565b611011611082565b6001600160a01b0381166110765760405162461bcd60e51b815260206004820152602660248201527f4f776e61626c653a206e6577206f776e657220697320746865207a65726f206160448201526564647265737360d01b6064820152608401610414565b61107f81611677565b50565b6000546001600160a01b03163314610b675760405162461bcd60e51b815260206004820181905260248201527f4f776e61626c653a2063616c6c6572206973206e6f7420746865206f776e65726044820152606401610414565b6000806110e883611140565b6001600160a01b0385166000908152600d6020526040812060010180549395509193508492611118908490611b05565b90915550506001600160a01b039092166000908152600d602052604090206003019190915550565b6001600160a01b0381166000908152600d6020526040812060038101546009546002909201548392839291429161117691611b05565b8111156111a9576009546001600160a01b0387166000908152600d60205260409020600201546111a69190611b05565b90505b60006111b58383611b5e565b600c546001600160a01b0389166000908152600d6020526040902054919250612710916301e1338091906111e99085611b1d565b6111f39190611b1d565b6111fd9190611b3c565b6112079190611b3c565b6112119085611b05565b9791965090945050505050565b600b5460ff16156112715760405162461bcd60e51b815260206004820152601f60248201527f546f6b656e5374616b696e673a207374616b696e6720697320706175736564006044820152606401610414565b600654429081116112d25760405162461bcd60e51b815260206004820152602560248201527f546f6b656e5374616b696e673a207374616b696e67206e6f742073746172746560448201526419081e595d60da1b6064820152608401610414565b60055481106113235760405162461bcd60e51b815260206004820152601b60248201527f546f6b656e5374616b696e673a207374616b696e6720656e64656400000000006044820152606401610414565b600454836007546113349190611b05565b11156113985760405162461bcd60e51b815260206004820152602d60248201527f546f6b656e5374616b696e673a206d6178207374616b696e6720746f6b656e2060448201526c1b1a5b5a5d081c995858da1959609a1b6064820152608401610414565b600083116113fc5760405162461bcd60e51b815260206004820152602b60248201527f546f6b656e5374616b696e673a207374616b6520616d6f756e74206d7573742060448201526a6265206e6f6e2d7a65726f60a81b6064820152608401610414565b6003548310156114805760405162461bcd60e51b815260206004820152604360248201527f546f6b656e5374616b696e673a207374616b6520616d6f756e74206d7573742060448201527f67726561746572207468616e206d696e696d756d20616d6f756e7420616c6c6f6064820152621dd95960ea1b608482015260a401610414565b6001600160a01b0382166000908152600d6020526040902054156114ac576114a7826110dc565b6114e3565b6001600160a01b0382166000908152600d6020526040812060030182905560088054600192906114dd908490611b05565b90915550505b6001600160a01b0382166000908152600d60205260408120805485929061150b908490611b05565b90915550506001600160a01b0382166000908152600d6020526040812060020182905560078054859290611540908490611b05565b9091555050600b546040516323b872dd60e01b8152336004820152306024820152604481018590526101009091046001600160a01b0316906323b872dd90606401602060405180830381600087803b15801561159b57600080fd5b505af11580156115af573d6000803e3d6000fd5b505050506040513d601f19601f820116820180604052508101906115d39190611acd565b61162f5760405162461bcd60e51b815260206004820152602760248201527f546f6b656e5374616b696e673a206661696c656420746f207472616e7366657260448201526620746f6b656e7360c81b6064820152608401610414565b816001600160a01b03167febedb8b3c678666e7f36970bc8f57abf6d8fa2e828c0da91ea5b75bf68ed101a8460405161166a91815260200190565b60405180910390a2505050565b600080546001600160a01b038381166001600160a01b0319831681178455604051919092169283917f8be0079c531659141344cd1fd0a4f28419497f9722a3daafe3b4186f6b6457e09190a35050565b600254610100900460ff166117325760405162461bcd60e51b815260206004820152602b60248201527f496e697469616c697a61626c653a20636f6e7472616374206973206e6f74206960448201526a6e697469616c697a696e6760a81b6064820152608401610414565b612710600c54111561179f5760405162461bcd60e51b815260206004820152603060248201527f546f6b656e5374616b696e673a2061707920726174652073686f756c6420626560448201526f0206c657373207468616e2031303030360841b6064820152608401610414565b600082116118015760405162461bcd60e51b815260206004820152602960248201527f546f6b656e5374616b696e673a207374616b652064617973206d757374206265604482015268206e6f6e2d7a65726f60b81b6064820152608401610414565b6001600160a01b03881661186f5760405162461bcd60e51b815260206004820152602f60248201527f546f6b656e5374616b696e673a20746f6b656e20616464726573732063616e6e60448201526e6f742062652030206164647265737360881b6064820152608401610414565b8284106118da5760405162461bcd60e51b815260206004820152603360248201527f546f6b656e5374616b696e673a2073746172742064617465206d757374206265604482015272206c657373207468616e20656e64206461746560681b6064820152608401610414565b6118e389611677565b600b8054610100600160a81b0319166101006001600160a01b038b1602179055600c87905560038690556004859055600684905560058390556119298262015180611b1d565b600955600a555050505050505050565b60006020828403121561194b57600080fd5b5035919050565b80356001600160a01b038116811461196957600080fd5b919050565b60006020828403121561198057600080fd5b61198982611952565b9392505050565b600080604083850312156119a357600080fd5b823591506119b360208401611952565b90509250929050565b60008060008060008060008060006101208a8c0312156119db57600080fd5b6119e48a611952565b98506119f260208b01611952565b989b989a505050506040870135966060810135966080820135965060a0820135955060c0820135945060e08201359350610100909101359150565b6020808252601f908201527f5265656e7472616e637947756172643a207265656e7472616e742063616c6c00604082015260600190565b600060208284031215611a7657600080fd5b5051919050565b60208082526030908201527f546f6b656e5374616b696e673a20696e73756666696369656e742066756e647360408201526f20696e2074686520747265617375727960801b606082015260800190565b600060208284031215611adf57600080fd5b8151801515811461198957600080fd5b634e487b7160e01b600052601160045260246000fd5b60008219821115611b1857611b18611aef565b500190565b6000816000190483118215151615611b3757611b37611aef565b500290565b600082611b5957634e487b7160e01b600052601260045260246000fd5b500490565b600082821015611b7057611b70611aef565b50039056fea26469706673582212201edff8fa61856de200ead58f2ee119decf7f38394feeabb153c92dcffc90fe7964736f6c63430008090033",
  "linkReferences": {},
  "deployedLinkReferences": {}
}