{
  "_format": "hh-sol-artifact-1",
  "contractName": "Theblockchaincoders",
  "sourceName": "contracts/TheblockchainCoders.sol",
  "abi": [
    {
      "inputs": [],
      "stateMutability": "nonpayable",
      "type": "constructor"
    },
    {
      "anonymous": false,
      "inputs": [
        {
          "indexed": true,
          "internalType": "address",
          "name": "_owner",
          "type": "address"
        },
        {
          "indexed": true,
          "internalType": "address",
          "name": "_spender",
          "type": "address"
        },
        {
          "indexed": false,
          "internalType": "uint256",
          "name": "_value",
          "type": "uint256"
        }
      ],
      "name": "Approval",
      "type": "event"
    },
    {
      "anonymous": false,
      "inputs": [
        {
          "indexed": true,
          "internalType": "address",
          "name": "_from",
          "type": "address"
        },
        {
          "indexed": true,
          "internalType": "address",
          "name": "_to",
          "type": "address"
        },
        {
          "indexed": false,
          "internalType": "uint256",
          "name": "_value",
          "type": "uint256"
        }
      ],
      "name": "Transfer",
      "type": "event"
    },
    {
      "inputs": [],
      "name": "_userId",
      "outputs": [
        {
          "internalType": "uint256",
          "name": "",
          "type": "uint256"
        }
      ],
      "stateMutability": "view",
      "type": "function"
    },
    {
      "inputs": [
        {
          "internalType": "address",
          "name": "",
          "type": "address"
        },
        {
          "internalType": "address",
          "name": "",
          "type": "address"
        }
      ],
      "name": "allowance",
      "outputs": [
        {
          "internalType": "uint256",
          "name": "",
          "type": "uint256"
        }
      ],
      "stateMutability": "view",
      "type": "function"
    },
    {
      "inputs": [
        {
          "internalType": "address",
          "name": "_spender",
          "type": "address"
        },
        {
          "internalType": "uint256",
          "name": "_value",
          "type": "uint256"
        }
      ],
      "name": "approve",
      "outputs": [
        {
          "internalType": "bool",
          "name": "success",
          "type": "bool"
        }
      ],
      "stateMutability": "nonpayable",
      "type": "function"
    },
    {
      "inputs": [
        {
          "internalType": "address",
          "name": "",
          "type": "address"
        }
      ],
      "name": "balanceOf",
      "outputs": [
        {
          "internalType": "uint256",
          "name": "",
          "type": "uint256"
        }
      ],
      "stateMutability": "view",
      "type": "function"
    },
    {
      "inputs": [],
      "name": "getTokenHolder",
      "outputs": [
        {
          "internalType": "address[]",
          "name": "",
          "type": "address[]"
        }
      ],
      "stateMutability": "view",
      "type": "function"
    },
    {
      "inputs": [
        {
          "internalType": "address",
          "name": "_address",
          "type": "address"
        }
      ],
      "name": "getTokenHolderData",
      "outputs": [
        {
          "internalType": "uint256",
          "name": "",
          "type": "uint256"
        },
        {
          "internalType": "address",
          "name": "",
          "type": "address"
        },
        {
          "internalType": "address",
          "name": "",
          "type": "address"
        },
        {
          "internalType": "uint256",
          "name": "",
          "type": "uint256"
        },
        {
          "internalType": "bool",
          "name": "",
          "type": "bool"
        }
      ],
      "stateMutability": "view",
      "type": "function"
    },
    {
      "inputs": [
        {
          "internalType": "uint256",
          "name": "",
          "type": "uint256"
        }
      ],
      "name": "holderToken",
      "outputs": [
        {
          "internalType": "address",
          "name": "",
          "type": "address"
        }
      ],
      "stateMutability": "view",
      "type": "function"
    },
    {
      "inputs": [],
      "name": "name",
      "outputs": [
        {
          "internalType": "string",
          "name": "",
          "type": "string"
        }
      ],
      "stateMutability": "view",
      "type": "function"
    },
    {
      "inputs": [],
      "name": "ownerOfContract",
      "outputs": [
        {
          "internalType": "address",
          "name": "",
          "type": "address"
        }
      ],
      "stateMutability": "view",
      "type": "function"
    },
    {
      "inputs": [],
      "name": "standard",
      "outputs": [
        {
          "internalType": "string",
          "name": "",
          "type": "string"
        }
      ],
      "stateMutability": "view",
      "type": "function"
    },
    {
      "inputs": [],
      "name": "symbol",
      "outputs": [
        {
          "internalType": "string",
          "name": "",
          "type": "string"
        }
      ],
      "stateMutability": "view",
      "type": "function"
    },
    {
      "inputs": [
        {
          "internalType": "address",
          "name": "",
          "type": "address"
        }
      ],
      "name": "tokenHolderInfos",
      "outputs": [
        {
          "internalType": "uint256",
          "name": "_tokenId",
          "type": "uint256"
        },
        {
          "internalType": "address",
          "name": "_from",
          "type": "address"
        },
        {
          "internalType": "address",
          "name": "_to",
          "type": "address"
        },
        {
          "internalType": "uint256",
          "name": "_totalToken",
          "type": "uint256"
        },
        {
          "internalType": "bool",
          "name": "_tokenHolder",
          "type": "bool"
        }
      ],
      "stateMutability": "view",
      "type": "function"
    },
    {
      "inputs": [],
      "name": "totalSupply",
      "outputs": [
        {
          "internalType": "uint256",
          "name": "",
          "type": "uint256"
        }
      ],
      "stateMutability": "view",
      "type": "function"
    },
    {
      "inputs": [
        {
          "internalType": "address",
          "name": "_to",
          "type": "address"
        },
        {
          "internalType": "uint256",
          "name": "_value",
          "type": "uint256"
        }
      ],
      "name": "transfer",
      "outputs": [
        {
          "internalType": "bool",
          "name": "success",
          "type": "bool"
        }
      ],
      "stateMutability": "nonpayable",
      "type": "function"
    },
    {
      "inputs": [
        {
          "internalType": "address",
          "name": "_from",
          "type": "address"
        },
        {
          "internalType": "address",
          "name": "_to",
          "type": "address"
        },
        {
          "internalType": "uint256",
          "name": "_value",
          "type": "uint256"
        }
      ],
      "name": "transferFrom",
      "outputs": [
        {
          "internalType": "bool",
          "name": "success",
          "type": "bool"
        }
      ],
      "stateMutability": "nonpayable",
      "type": "function"
    }
  ],
  "bytecode": "0x60c0604052601460808190527f40746865626c6f636b636861696e636f6465727300000000000000000000000060a090815261003e91600091906100f6565b506040805180820190915260038082526254424360e81b6020909201918252610069916001916100f6565b506040805180820190915260198082527f746865626c6f636b636861696e636f6465727320762e302e310000000000000060209092019182526100ae916002916100f6565b503480156100bb57600080fd5b50600480546001600160a01b03191633908117909155600090815260086020526040902069d3c21bcecceda1000000908190556003556101ca565b8280546101029061018f565b90600052602060002090601f016020900481019282610124576000855561016a565b82601f1061013d57805160ff191683800117855561016a565b8280016001018555821561016a579182015b8281111561016a57825182559160200191906001019061014f565b5061017692915061017a565b5090565b5b80821115610176576000815560010161017b565b600181811c908216806101a357607f821691505b602082108114156101c457634e487b7160e01b600052602260045260246000fd5b50919050565b61099e806101d96000396000f3fe608060405234801561001057600080fd5b50600436106100f55760003560e01c806370a0823111610097578063a9059cbb11610066578063a9059cbb146102a2578063ba8e3557146102b5578063bc4530e7146102ca578063dd62ed3e146102d357600080fd5b806370a082311461021a578063760b06c51461023a57806382b682631461024d57806395d89b411461029a57600080fd5b806323b872dd116100d357806323b872dd1461015257806329cc66ed14610165578063468229ae146101e75780635a3b7e421461021257600080fd5b806306fdde03146100fa578063095ea7b31461011857806318160ddd1461013b575b600080fd5b6101026102fe565b60405161010f919061073b565b60405180910390f35b61012b6101263660046107ac565b61038c565b604051901515815260200161010f565b61014460035481565b60405190815260200161010f565b61012b6101603660046107d6565b6103f8565b6101b1610173366004610812565b6007602052600090815260409020805460018201546002830154600384015460049094015492936001600160a01b0392831693929091169160ff1685565b604080519586526001600160a01b039485166020870152929093169184019190915260608301521515608082015260a00161010f565b6004546101fa906001600160a01b031681565b6040516001600160a01b03909116815260200161010f565b610102610538565b610144610228366004610812565b60086020526000908152604090205481565b6101fa610248366004610834565b610545565b6101b161025b366004610812565b6001600160a01b039081166000908152600760205260409020805460028201546001830154600384015460049094015492959185169416929160ff1690565b61010261056f565b61012b6102b03660046107ac565b61057c565b6102bd6106c2565b60405161010f919061084d565b61014460055481565b6101446102e136600461089a565b600960209081526000928352604080842090915290825290205481565b6000805461030b906108cd565b80601f0160208091040260200160405190810160405280929190818152602001828054610337906108cd565b80156103845780601f1061035957610100808354040283529160200191610384565b820191906000526020600020905b81548152906001019060200180831161036757829003601f168201915b505050505081565b3360008181526009602090815260408083206001600160a01b038716808552925280832085905551919290917f8c5be1e5ebec7d5bd14f71427d1e84f3dd0314c0f7b2291e5b200ac8c7c3b925906103e79086815260200190565b60405180910390a350600192915050565b6001600160a01b03831660009081526008602052604081205482111561041d57600080fd5b6001600160a01b038416600090815260096020908152604080832033845290915290205482111561044d57600080fd5b6001600160a01b0384166000908152600860205260408120805484929061047590849061091e565b90915550506001600160a01b038316600090815260086020526040812080548492906104a2908490610935565b90915550506001600160a01b0384166000908152600960209081526040808320338452909152812080548492906104da90849061091e565b92505081905550826001600160a01b0316846001600160a01b03167fddf252ad1be2c89b69c2b068fc378daa952ba7f163c4a11628f55a4df523b3ef8460405161052691815260200190565b60405180910390a35060019392505050565b6002805461030b906108cd565b6006818154811061055557600080fd5b6000918252602090912001546001600160a01b0316905081565b6001805461030b906108cd565b3360009081526008602052604081205482111561059857600080fd5b6105a0610724565b33600090815260086020526040812080548492906105bf90849061091e565b90915550506001600160a01b038316600090815260086020526040812080548492906105ec908490610935565b90915550506001600160a01b03831660008181526007602090815260408083206002810180546001600160a01b0319908116871790915560018083018054339084168117909155600384018a905560048401805460ff19168317905560055484556006805492830181559096527ff652222313e28459528d920b65115c16c04f3efc82aaedc97be59f3f377c0d3f018054909116861790559051868152909392917fddf252ad1be2c89b69c2b068fc378daa952ba7f163c4a11628f55a4df523b3ef910160405180910390a35060019392505050565b6060600680548060200260200160405190810160405280929190818152602001828054801561071a57602002820191906000526020600020905b81546001600160a01b031681526001909101906020018083116106fc575b5050505050905090565b600580549060006107348361094d565b9190505550565b600060208083528351808285015260005b818110156107685785810183015185820160400152820161074c565b8181111561077a576000604083870101525b50601f01601f1916929092016040019392505050565b80356001600160a01b03811681146107a757600080fd5b919050565b600080604083850312156107bf57600080fd5b6107c883610790565b946020939093013593505050565b6000806000606084860312156107eb57600080fd5b6107f484610790565b925061080260208501610790565b9150604084013590509250925092565b60006020828403121561082457600080fd5b61082d82610790565b9392505050565b60006020828403121561084657600080fd5b5035919050565b6020808252825182820181905260009190848201906040850190845b8181101561088e5783516001600160a01b031683529284019291840191600101610869565b50909695505050505050565b600080604083850312156108ad57600080fd5b6108b683610790565b91506108c460208401610790565b90509250929050565b600181811c908216806108e157607f821691505b6020821081141561090257634e487b7160e01b600052602260045260246000fd5b50919050565b634e487b7160e01b600052601160045260246000fd5b60008282101561093057610930610908565b500390565b6000821982111561094857610948610908565b500190565b600060001982141561096157610961610908565b506001019056fea26469706673582212202d73b2112e9060e101f1f47489b736b970f89910b547ae623b5d331b5f52a26064736f6c63430008090033",
  "linkReferences": {},
  "deployedLinkReferences": {}
}